:100000000C942A000C94AB010C9447000C9447000C
:100010000C9447000C9447000C9447000C94470044
:100020000C9447000C9447000C9447000C94D301A7
:100030000C9447000C9447000C9447000C94470024
:100040000C9447000C9447000C9447000C94470014
:100050000C94470011241FBECFE5D4E0DEBFCDBF16
:1000600010E0A0E6B0E0E2EAF9E002C005900D92EF
:10007000A437B107D9F720E0A4E7B0E001C01D9292
:10008000AF38B207E1F70E9401010C94CF040C9441
:10009000000098B39F70282F207F922B98BBC098A8
:1000A000C19A0000C19832E43A95F1F700C028B334
:1000B0002F7030E1839FC0011124822B88BBC19A2D
:1000C0000000C19883EF91E00197F1F700C00000B4
:1000D000089598B39F70282F207F922B98BBC09AC9
:1000E000C19A0000C19832E43A95F1F700C028B3F4
:1000F0002F7030E1839FC0011124822B88BBC19AED
:100100000000C19883EF91E00197F1F700C0000073
:1001100008958FEF87BB87E893E10197F1F700C05F
:10012000000082E00E94490088E20E9449008CE0C1
:100130000E94490086E00E94490081E00E94490037
:1001400083EF91E00197F1F700C000000895CF938D
:10015000DF93EC018881882331F021960E946900A9
:1001600089918111FBCFDF91CF910895CF93DF93D8
:10017000EA01811108C0603178F4862F8F708068A1
:100180000E94490009C0813039F4603128F4862F7B
:100190008F70806C0E944900CE010E94A700DF9101
:1001A000CF91089581E00E94490083EF91E001978B
:1001B000F1F700C0000080E80E944900089588E936
:1001C0008AB986E080BD10BC83E389B908955D9B40
:1001D000FECF8CB908950F931F93CF93FC018081BC
:1001E000882359F08F01C0E00E94E700CF5FF8013B
:1001F000EC0FF11D80818111F7CFCF911F910F91ED
:1002000008950E94DF000E948900929A85B782605B
:1002100085BF8BB780648BBF78948AB3806C8ABBB0
:100220000E94D2000FE610E0CBE7D0E06894EE2405
:10023000E4F8F12C4CC080917500803309F4DE980D
:1002400080917500813309F4DE9A809175008233C4
:10025000E1F51092770010927800109279001092D8
:100260007A000E94D20040E650E060E080E00E9408
:10027000B6008091770090917800A0917900B091BC
:100280007A00BF93AF939F938F931F930F93DF9346
:10029000CF930E94E501FE0101900020E9F7B7012C
:1002A0006E1B7F0B64587F4F76956795AE0181E09A
:1002B0000E94B600CE010E94EB008DB79EB7089653
:1002C0000FB6F8949EBF0FBE8DBF1092760080913E
:1002D00076008111B0CF829902C0DF9A01C0DF9809
:1002E00080917400882399F3809177009091780031
:1002F000A0917900B0917A00BF93AF939F938F93B1
:100300001F930F93DF93CF930E94E501CE010E94CC
:10031000EB000E94D20040E650E060E080E00E94E6
:10032000B600FE0101900020E9F7B7016E1B7F0BBC
:1003300064587F4F76956795AE0181E00E94B600C4
:10034000109274008DB79EB708960FB6F8949EBFB2
:100350000FBE8DBFBCCF1F920F920FB60F9211240C
:100360008F939F93AF93BF93809177009091780084
:10037000A0917900B0917A000196A11DB11D8093E2
:10038000770090937800A0937900B0937A0081E091
:1003900080937400BF91AF919F918F910F900FBE8A
:1003A0000F901F9018951F920F920FB60F92112465
:1003B0008F9381E0809376008CB1809375008F914C
:1003C0000F900FBE0F901F901895AEE0B0E0EBEECF
:1003D000F1E00C94A6040D891E8986E08C831A83B3
:1003E00009838FEF9FE79E838D83AE01475E5F4F4A
:1003F0006F89788DCE0101960E940702EF81F88502
:10040000E00FF11F10822E96E4E00C94C204ABE0E2
:10041000B0E0EDE0F2E00C9498046C017B018A01FD
:10042000FC0117821682838181FFCCC1CE01019627
:100430003C01F6019381F70193FD859193FF819132
:100440007F01882309F4BAC1853239F493FD85917F
:1004500093FF81917F01853229F4B60190E00E94DB
:10046000FE03E7CF912C212C312CFFE1F315D8F0BE
:100470008B3279F038F4803279F08332A1F4232D75
:1004800020611DC08D3261F0803369F4232D21601D
:1004900016C0832D8260382EE32DE4603E2E2AC0E4
:1004A000F32DF8601DC037FC2DC020ED280F2A3039
:1004B00040F08E32B9F436FC81C1232D2064322EF7
:1004C00019C036FE06C08AE0989E200D1124922E97
:1004D00011C0EAE02E9E200D1124222EF32DF06291
:1004E0003F2E08C08C3621F4832D8068382E02C040
:1004F000883641F4F70193FD859193FF81917F0147
:100500008111B3CF982F9F7D9554933028F40C5FC1
:100510001F4F9FE399830DC0833631F0833771F00D
:10052000833509F059C021C0F801808189830E5FAD
:100530001F4F88248394912C530113C02801F2E0AB
:100540004F0E511CF801A080B18036FE03C0692D0A
:1005500070E002C06FEF7FEFC5010E94F3034C0112
:100560008201F32DFF773F2E16C0280122E0420EB4
:10057000511CF801A080B18036FE03C0692D70E0E7
:1005800002C06FEF7FEFC5010E94E8034C01F32D1D
:10059000F0683F2E820133FC1BC0822D90E088164C
:1005A0009906B0F4B60180E290E00E94FE032A941E
:1005B000F4CFF50137FC859137FE81915F01B601DB
:1005C00090E00E94FE0321102A9421E0821A9108F3
:1005D0008114910471F7E8C0843611F0893641F531
:1005E000F80137FE07C060817181828193810C5FC1
:1005F0001F4F08C060817181072E000C880B990B7A
:100600000E5F1F4FF32DFF763F2E97FF09C0909589
:100610008095709561957F4F8F4F9F4FF0683F2E6B
:100620002AE030E0A3010E943A04882E861845C0D3
:10063000853731F4232D2F7EB22E2AE030E025C0FD
:10064000932D997FB92E8F36C1F018F4883579F043
:10065000B5C0803719F0883721F0B0C0E92FE061CC
:10066000BE2EB4FE0DC0FB2DF460BF2E09C034FEBB
:100670000AC0292F2660B22E06C028E030E005C04F
:1006800020E130E002C020E132E0F801B7FE07C00F
:1006900060817181828193810C5F1F4F06C06081F0
:1006A000718180E090E00E5F1F4FA3010E943A0429
:1006B000882E8618FB2DFF773F2E36FE0DC0232D8A
:1006C0002E7FA22E891458F434FE0BC032FC09C0D0
:1006D000832D8E7EA82E05C0B82CA32C03C0B82C69
:1006E00001C0B92CA4FE0FC0FE01E80DF11D8081F0
:1006F000803321F49A2D997EA92E09C0A2FE06C04E
:10070000B394B39404C08A2D867809F0B394A3FC03
:1007100011C0A0FE06C0B21488F4280C922C9B18BD
:100720000EC0B21460F4B60180E290E00E94FE03B5
:10073000B394F7CFB21418F42B1802C0982C212CC4
:10074000A4FE10C0B60180E390E00E94FE03A2FE6A
:1007500017C0A1FC03C088E790E002C088E590E0E4
:10076000B6010CC08A2D867859F0A1FE02C08BE23A
:1007700001C080E2A7FC8DE2B60190E00E94FE037A
:10078000891438F4B60180E390E00E94FE039A9445
:10079000F7CF8A94F301E80DF11D8081B60190E056
:1007A0000E94FE038110F5CF222009F442CEB6014B
:1007B00080E290E00E94FE032A94F6CFF601868143
:1007C000978102C08FEF9FEF2B96E2E10C94B40467
:1007D000FC010590615070400110D8F7809590950C
:1007E0008E0F9F1F0895FC01615070400190011011
:1007F000D8F7809590958E0F9F1F08950F931F93A4
:10080000CF93DF93FB01238121FD03C08FEF9FEF87
:100810002CC022FF16C046815781248135814217A2
:10082000530744F4A081B1819D012F5F3F4F318375
:1008300020838C93268137812F5F3F4F3783268318
:1008400014C08B01EC01FB010084F185E02D0995BA
:10085000892BE1F6D80116968D919C9117970196F8
:1008600017969C938E931697CE01DF91CF911F918F
:100870000F910895FA01AA27283051F1203181F112
:10088000E8946F936E7F6E5F7F4F8F4F9F4FAF4F98
:10089000B1E03ED0B4E03CD0670F781F891F9A1FAB
:1008A000A11D680F791F8A1F911DA11D6A0F711D5F
:1008B000811D911DA11D20D009F468943F912AE06B
:1008C000269F11243019305D3193DEF6CF01089553
:1008D000462F4770405D4193B3E00FD0C9F7F6CF84
:1008E000462F4F70405D4A3318F0495D31FD40524C
:1008F000419302D0A9F7EACFB4E0A69597958795E2
:1009000077956795BA95C9F70097610571050895C0
:100910009B01AC010A2E069457954795379527956C
:10092000BA95C9F7620F731F841F951FA01D089504
:100930002F923F924F925F926F927F928F929F92EF
:10094000AF92BF92CF92DF92EF92FF920F931F93DD
:10095000CF93DF93CDB7DEB7CA1BDB0B0FB6F8948E
:10096000DEBF0FBECDBF09942A88398848885F84CE
:100970006E847D848C849B84AA84B984C884DF803F
:10098000EE80FD800C811B81AA81B981CE0FD11D23
:100990000FB6F894DEBF0FBECDBFED010895F894F9
:0209A000FFCF87
:1009A20020544F4E472053414E205048414D002580
:0409B2006C75000060
:00000001FF
